:1000000045C000000C94A3080C9477085DC0000064
:100010005BC0000059C0000057C0000055C0000080
:1000200053C0000051C000000C94B8084DC000003F
:100030000C94390B49C0000047C0000045C00000C7
:100040000C948C0841C000000C94F8083DC00000DE
:100050003BC0000039C0000037C0000035C00000C0
:1000600033C0000031C000002FC000002DC00000D0
:100070002BC0000029C0000027C0000025C00000E0
:1000800023C0000021C000001FC0000011241FBEBB
:10009000CFEFD0E1DEBFCDBF11E0A0E0B1E0E4E8FA
:1000A000F0E200E00BBF02C007900D92A830B1074C
:1000B000D9F72AE0A8E0B1E001C01D92AA30B2074A
:1000C000E1F764D00C9440109BCFF3D584E690E028
:1000D0000E94F00DFACFC1E083E0B6D7873058F424
:1000E000D99A80910801811111C0C093080164E67A
:1000F00070E050D60BC0D99880910801813031F45E
:100100001092080164E670E080E0B9D684EF91E0D7
:100110000E94F00DE1CF80E04FD7EC01DBD0CA3177
:10012000D10554F084EF91E00E94F00DA0D088EE4C
:1001300093E00E94F00DEFCF69976CF79ED088EEA8
:1001400093E00E94F00D9CD095D088EE93E00E9441
:10015000F00D93D0BFD088EE93E00E94F00DA5D0B3
:1001600086D088EE93E00E94F00D87D084EF91E076
:100170000E94F00DAFD07BD088EE93E00E94F00D8E
:100180007CD088EE93E00E94F00DC5CFAF92BF9275
:10019000CF92DF92EF92FF920F93F8D543D0EED635
:1001A0008AB383608ABB44D03DD0A12CB12CC12C32
:1001B000D12CE12CF12C02E020E030E042E350E0D1
:1001C00060E070E085E690E00E948F0B01E020E0A7
:1001D00030E042E350E060E070E08BE690E00E94A7
:1001E0008F0B03E020E030E048EC50E060E070E08E
:1001F0008BE890E00E948F0BAFD0AED0ADD0ACD0EA
:10020000ABD081B3806C81BBB9D6C0D50E948B0CBA
:1002100080E090E00F91FF90EF90DF90CF90BF9043
:10022000AF90089563E370E080E090E0CCC708955C
:1002300081B3806C81BB82B38F7382BBEBE8F0E04B
:10024000808182688083EAE8F0E080818B6180832E
:1002500083EC99E09093810080938000139A83EC63
:1002600090E09093870080938600C79A0895969AAD
:1002700097980895979A96980895969A979A0895B8
:1002800010920B0110920A0181E090E090930A0114
:1002900080930901109201011092000185E491E020
:1002A0009093870080938600089510920101109228
:1002B000000181E090E090930B0180930A0110927D
:1002C0000A011092090186E990E0909387008093DB
:1002D0008600089510920B0110920A0110920A01F3
:1002E0001092090181E090E0909301018093000158
:1002F00081EE90E090938700809386000895CF93DD
:10030000C42F813039F4C698862F57D78C2F55D7F4
:10031000C69A1AC0823039F4C498862F4ED78C2FD3
:100320004CD7C49A11C0833039F4A898862F45D78A
:100330008C2F43D7A89A08C0843031F4C598862FF3
:100340003CD78C2F3AD7C59A8FEC97E00197F1F7FD
:1003500000C00000CF910895CF9380E020D787B3ED
:10036000806F87BBA09A88B3806F88BBA89A84B33C
:10037000817884BBC1E040E069E08C2FC0DF48E0B9
:100380006AE08C2FBCDF41E06CE08C2FB8DF47E0E7
:100390006BE08C2FB4DFCF5FC53069F7CF91089544
:1003A00040E061E081E0ABDF40E062E081E0A7DFB8
:1003B00040E063E081E0A3DF40E064E081E09FDFB4
:1003C00040E065E081E09BDF40E066E081E097DFB0
:1003D00040E067E081E093DF40E068E081E08FDFAC
:1003E00040E061E082E08BDF40E062E082E087DFB6
:1003F00040E063E082E083DF4FEF64E082E07FDF94
:100400004FEF65E082E07BDF40E066E082E077DF8F
:1004100040E067E082E073DF40E068E082E06FDFA9
:1004200040E061E083E06BDF40E062E083E067DFB3
:1004300040E063E083E063DF4FEF64E083E05FDF91
:100440004FEF65E083E05BDF40E066E083E057DF8D
:1004500040E067E083E053DF40E068E083E04FDFA7
:1004600040E061E084E04BDF40E062E084E047DFB1
:1004700040E063E084E043DF40E064E084E03FDFAD
:1004800040E065E084E03BDF40E066E084E037DFA9
:1004900040E067E084E033DF40E068E084E02FCFB5
:1004A000089540E061E081E02ADF40E062E081E021
:1004B00026DF40E063E081E022DF40E064E081E0AD
:1004C0001EDF40E065E081E01ADF40E066E081E0A9
:1004D00016DF40E067E081E012DF40E068E081E0A5
:1004E0000EDF40E061E082E00ADF40E062E082E0AF
:1004F00006DF40E063E082E002DF40E064E082E0AB
:10050000FEDE40E065E082E0FADE4FEF66E082E08A
:10051000F6DE4FEF67E082E0F2DE4FEF68E082E068
:10052000EEDE40E061E083E0EADE40E062E083E0AE
:10053000E6DE40E063E083E0E2DE40E064E083E0AA
:10054000DEDE40E065E083E0DADE4FEF66E083E088
:10055000D6DE4FEF67E083E0D2DE4FEF68E083E066
:10056000CEDE40E061E084E0CADE40E062E084E0AC
:10057000C6DE40E063E084E0C2DE40E064E084E0A8
:10058000BEDE40E065E084E0BADE40E066E084E0A4
:10059000B6DE40E067E084E0B2DE40E068E084E0A0
:1005A000AECE089540E061E081E0A9DE40E062E087
:1005B00081E0A5DE40E063E081E0A1DE40E064E0B0
:1005C00081E09DDE40E065E081E099DE40E066E0AC
:1005D00081E095DE40E067E081E091DE40E068E0A8
:1005E00081E08DDE4FEF61E082E089DE4FEF62E077
:1005F00082E085DE4FEF63E082E081DE40E064E090
:1006000082E07DDE40E065E082E079DE40E066E0A9
:1006100082E075DE40E067E082E071DE40E068E0A5
:1006200082E06DDE4FEF61E083E069DE4FEF62E074
:1006300083E065DE4FEF63E083E061DE40E064E08D
:1006400083E05DDE40E065E083E059DE40E066E0A7
:1006500083E055DE40E067E083E051DE40E068E0A3
:1006600083E04DDE40E061E084E049DE40E062E0AE
:1006700084E045DE40E063E084E041DE40E064E0A9
:1006800084E03DDE40E065E084E039DE40E066E0A5
:1006900084E035DE40E067E084E031DE40E068E0A1
:1006A00084E02DCE089540E061E081E028DE40E066
:1006B00062E081E024DE40E063E081E020DE40E0B3
:1006C00064E081E01CDE40E065E081E018DE40E0AF
:1006D00066E081E014DE40E067E081E010DE40E0AB
:1006E00068E081E00CDE40E061E082E008DE40E0AE
:1006F00062E082E004DE40E063E082E000DE40E0B1
:1007000064E082E0FCDD40E065E082E0F8DD40E0AE
:1007100066E082E0F4DD40E067E082E0F0DD40E0AA
:1007200068E082E0ECDD40E061E083E0E8DD40E0AD
:1007300062E083E0E4DD40E063E083E0E0DD4FEF92
:1007400064E083E0DCDD4FEF65E083E0D8DD40E08E
:1007500066E083E0D4DD40E067E083E0D0DD40E0A8
:1007600068E083E0CCDD40E061E084E0C8DD40E0AB
:1007700062E084E0C4DD40E063E084E0C0DD4FEF90
:1007800064E084E0BCDD4FEF65E084E0B8DD40E08C
:1007900066E084E0B4DD40E067E084E0B0DD40E0A6
:1007A00068E084E0ACCD089540E061E081E0A7DD41
:1007B00040E062E081E0A3DD40E063E081E09FDDB6
:1007C00040E064E081E09BDD40E065E081E097DDB2
:1007D00040E066E081E093DD40E067E081E08FDDAE
:1007E00040E068E081E08BDD40E061E082E087DDB1
:1007F00040E062E082E083DD40E063E082E07FDDB4
:1008000040E064E082E07BDD40E065E082E077DDAF
:1008100040E066E082E073DD40E067E082E06FDDAB
:1008200040E068E082E06BDD4FEF61E083E067DD90
:100830004FEF62E083E063DD4FEF63E083E05FDD75
:1008400040E064E083E05BDD40E065E083E057DDAD
:1008500040E066E083E053DD40E067E083E04FDDA9
:1008600040E068E083E04BDD4FEF61E084E047DD8E
:100870004FEF62E084E043DD4FEF63E084E03FDD73
:1008800040E064E084E03BDD40E065E084E037DDAB
:1008900040E066E084E033DD40E067E084E02FDDA7
:1008A00040E068E084E02BCD089540E061E081E025
:1008B00026DD40E062E081E022DD40E063E081E0AF
:1008C0001EDD40E064E081E01ADD40E065E081E0AB
:1008D00016DD40E066E081E012DD40E067E081E0A7
:1008E0000EDD40E068E081E00ADD40E061E082E0AA
:1008F00006DD40E062E082E002DD40E063E082E0AD
:10090000FEDC40E064E082E0FADC40E065E082E0AA
:10091000F6DC40E066E082E0F2DC40E067E082E0A6
:10092000EEDC40E068E082E0EADC40E061E083E0A9
:10093000E6DC40E062E083E0E2DC40E063E083E0AC
:10094000DEDC40E064E083E0DADC40E065E083E0A8
:10095000D6DC4FEF66E083E0D2DC4FEF67E083E068
:10096000CEDC4FEF68E083E0CADC40E061E084E089
:10097000C6DC40E062E084E0C2DC40E063E084E0AA
:10098000BEDC40E064E084E0BADC40E065E084E0A6
:10099000B6DC4FEF66E084E0B2DC4FEF67E084E066
:1009A000AEDC4FEF68E084E0AACC089540E061E05F
:1009B00081E0A5DC40E062E081E0A1DC40E063E0B2
:1009C00081E09DDC40E064E081E099DC40E065E0AE
:1009D00081E095DC4FEF66E081E091DC4FEF67E06E
:1009E00081E08DDC4FEF68E081E089DC40E061E090
:1009F00082E085DC40E062E082E081DC40E063E0B0
:100A000082E07DDC40E064E082E079DC40E065E0AB
:100A100082E075DC4FEF66E082E071DC4FEF67E06B
:100A200082E06DDC4FEF68E082E069DC40E061E08D
:100A300083E065DC40E062E083E061DC40E063E0AD
:100A400083E05DDC40E064E083E059DC40E065E0A9
:100A500083E055DC40E066E083E051DC40E067E0A5
:100A600083E04DDC40E068E083E049DC40E061E0A9
:100A700084E045DC40E062E084E041DC40E063E0AB
:100A800084E03DDC40E064E084E039DC40E065E0A7
:100A900084E035DC40E066E084E031DC40E067E0A3
:100AA00084E02DDC40E068E084E029CC08954FEF3D
:100AB00061E081E024DC4FEF62E081E020DC4FEF79
:100AC00063E081E01CDC40E064E081E018DC40E0B1
:100AD00065E081E014DC40E066E081E010DC40E0AD
:100AE00067E081E00CDC40E068E081E008DC4FEF8B
:100AF00061E082E004DC4FEF62E082E000DC4FEF77
:100B000063E082E0FCDB40E064E082E0F8DB40E0B0
:100B100065E082E0F4DB40E066E082E0F0DB40E0AC
:100B200067E082E0ECDB40E068E082E0E8DB40E0A8
:100B300061E083E0E4DB40E062E083E0E0DB40E0B2
:100B400063E083E0DCDB40E064E083E0D8DB40E0AE
:100B500065E083E0D4DB40E066E083E0D0DB40E0AA
:100B600067E083E0CCDB40E068E083E0C8DB40E0A6
:100B700061E084E0C4DB40E062E084E0C0DB40E0B0
:100B800063E084E0BCDB40E064E084E0B8DB40E0AC
:100B900065E084E0B4DB40E066E084E0B0DB40E0A8
:100BA00067E084E0ACDB40E068E084E0A8CB089537
:100BB00040E061E081E0A3DB40E062E081E09FDBB8
:100BC00040E063E081E09BDB4FEF64E081E097DB96
:100BD0004FEF65E081E093DB40E066E081E08FDB92
:100BE00040E067E081E08BDB40E068E081E087DBAC
:100BF00040E061E082E083DB40E062E082E07FDBB6
:100C000040E063E082E07BDB4FEF64E082E077DB93
:100C10004FEF65E082E073DB40E066E082E06FDB8F
:100C200040E067E082E06BDB40E068E082E067DBA9
:100C300040E061E083E063DB40E062E083E05FDBB3
:100C400040E063E083E05BDB40E064E083E057DBAF
:100C500040E065E083E053DB40E066E083E04FDBAB
:100C600040E067E083E04BDB40E068E083E047DBA7
:100C700040E061E084E043DB40E062E084E03FDBB1
:100C800040E063E084E03BDB40E064E084E037DBAD
:100C900040E065E084E033DB40E066E084E02FDBA9
:100CA00040E067E084E02BDB40E068E084E027CBB5
:100CB0000895999B06C080910001813009F057C0CA
:100CC0006FDB9D9902C09E9B07C08091000181301F
:100CD00009F044C067DC09C09A9902C09B9B05C01B
:100CE00080910001813009F4DCDB999B06C0809182
:100CF0000901813009F040C0D6DC9D9902C09E9B5D
:100D000006C080910901813061F54EDD09C09A99D4
:100D100002C09B9B05C080910901813009F4C5DDAB
:100D2000999B05C080910A01813059F541DF9D9959
:100D300002C09E9B06C080910A018130A9F436DE74
:100D400009C09A9902C09B9B05C080910A0181301D
:100D500009F4ADDE84E690E043C708959A99C5CFC3
:100D600009C09A99DDCF0BC09A99F4CF0DC09D9917
:100D7000F5CFA9CF83B3B9CF9D99F3CFC0CF83B3BC
:100D8000CFCF9D99F1CFD5CF83B3E4CF8FEF8093B1
:100D900061000895EF92FF920F931F93CF93DF931B
:100DA0008B01882321F016161706A4F161C01616D0
:100DB00017060CF05DC0E12CF12CC2E6D0E0888172
:100DC000816088838881817F888385E090E008D76F
:100DD0008881826088838881827F888385E090E033
:100DE000FFD68881846088838881847F888385E0BA
:100DF00090E0F6D68881886088838881887F8883A0
:100E000085E090E0EDD68FEFE81AF80A0E151F0581
:100E1000B1F62EC0E12CF12CC2E6D0E088818061D1
:100E2000888388818F71888385E090E0D9D6888116
:100E30008062888388818F72888385E090E0D0D635
:100E400088818064888388818F74888385E090E0BE
:100E5000C7D688818068888388818F78888385E079
:100E600090E0BED68FEFE81AF80A0E151F05B1F60E
:100E7000DF91CF911F910F91FF90EF9008958823FC
:100E800029F0161617060CF43FC00895161617061B
:100E90000CF073C020E030E0E2E6F0E08081886092
:100EA00080838081887F80838FE097E20197F1F7CC
:100EB00000C000008081846080838081847F808383
:100EC0008FE097E20197F1F700C000008081826017
:100ED00080838081827F80838FE097E20197F1F7A2
:100EE00000C000008081816080838081817F808359
:100EF0008FE097E20197F1F700C000002F5F3F4FAE
:100F00006217730759F6089520E030E0E2E6F0E05A
:100F100080818068808380818F7880838FE097E2F2
:100F20000197F1F700C00000808180648083808198
:100F30008F7480838FE097E20197F1F700C0000083
:100F400080818062808380818F7280838FE097E2CE
:100F50000197F1F700C0000080818061808380816B
:100F60008F7180838FE097E20197F1F700C0000056
:100F70002F5F3F4F6217730759F60895E4E6F0E0DC
:100F800080818760808381B38C7F81BB82B38360E3
:100F900082BB81B3806381BBEAE6F0E080818A7F17
:100FA000808380818A60808389B7836089BF87B7A7
:100FB000856087BF78940895833008F042C0E5E6E5
:100FC000F0E09081282F2370922B908390818C6F7A
:100FD00089238083109212011092110110920C014A
:100FE00010920B0114BC87B7806487BF949A8AE182
:100FF0008A95F1F700C0949885B5856085BD80918C
:10100000110190911201892BD1F360910B01709124
:101010000C018091110190911201762F6627680FC3
:10102000791F80E090E02CD728E23EE74CE050E4C6
:10103000B5D720E030E040E251E491D6F5D6CB01BF
:1010400008958FEF9FEF0895833031F4E5E6F0E0E7
:1010500080818B7F808308C0843009F045C0E5E63D
:10106000F0E08081846080831092100110920F0163
:1010700010920E0110920D0112BE87B7816087BFDA
:10108000959A8AE18A95F1F700C0959883B78560B3
:1010900083BF80910F0190911001892BD1F3609152
:1010A0000D0170910E0180910F0190911001762F2A
:1010B0006627680F791F80E090E0E2D628E23EE7DD
:1010C0004CE050E46BD720E030E040E251E447D6FA
:1010D000ABD69B01ADECBCECC4D7929582958F70DA
:1010E00089279F70892708958FEF9FEF08951F929A
:1010F0000F920FB60F9211248F939F9382B790E0B7
:101100009093100180930F0113BE9F918F910F90C8
:101110000FBE0F901F9018951F920F920FB60F924F
:1011200011248F939F9380910D0190910E01019650
:1011300090930E0180930D019F918F910F900FBEA0
:101140000F901F9018951F920F920FB60F921124B7
:101150008F939F9384B590E0909312018093110137
:1011600015BC9F918F910F900FBE0F901F901895F7
:101170001F920F920FB60F9211248F939F9380911D
:101180000B0190910C01019690930C0180930B013F
:101190009F918F910F900FBE0F901F901895811106
:1011A00007C087B3876087BB8DB189658DB9089506
:1011B000813011F4BA9A6E9A08958FB9779BFECF59
:1011C000949A8FB108950F931F93072F182F292FEB
:1011D0003327009398006093990088E180939A00E8
:1011E000EDE9F0E080818C6080831F910F9108957C
:1011F0001F920F920FB60F9211240BB60F922F93DE
:101200008F939F93EF93FF9380911301909114011B
:101210008C3B92408CF4E0911301F09114018CB15D
:10122000E25BF84F80838091130190911401019645
:101230009093140180931301FF91EF919F918F91EF
:101240002F910F900BBE0F900FBE0F901F9018950F
:10125000CF93DF93EC0188D3809115019091160113
:10126000892B31F48AE191E0909316018093150166
:101270002091170130911801C9018C0F9D1F8B3DE2
:1012800045E0940770F42817390770F4C0911501F0
:10129000D0911601C20FD31F9093180180931701AC
:1012A00005C0C0E0D0E002C0C0E0D0E01CD4CE0158
:1012B000DF91CF9108950895FC0103969283818375
:1012C0002FEF3FEF34832383968385839087878333
:1012D00010820895FC01118610860895CF93DF9344
:1012E0009C01FB01DC011196CD91DC911297D38317
:1012F000C2838C819D81958384838C819D81DC0157
:1013000013967C936E9312977D836C83318720872D
:10131000F90180818F5F8083DF91CF910895CF9312
:10132000DF93EB01488159814F3F2FEF520721F4A2
:10133000FC01A781B0850DC0DC01139601C0DF015F
:101340001296ED91FC91139720813181421753073A
:10135000B0F71296ED91FC911397FB83EA83D58346
:10136000C483BD83AC831396DC93CE931297998785
:101370008887FC0120812F5F2083DF91CF91089522
:10138000CF93DF93FC01A085B185C281D381848195
:1013900095819D838C83C481D581828193819B8338
:1013A0008A8311968D919C911297E817F90731F471
:1013B0008481958112969C938E9311971186108645
:1013C0008C9181508C93DF91CF91089531E1FC0194
:1013D0003083319722E220833197A3E3A0833197B2
:1013E00060833197708331971082319760E8608312
:1013F00031971082319762E06083319763E06083B8
:10140000319764E06083319765E06083319766E0EF
:101410006083319767E06083319768E0608331973C
:1014200069E06083319760E1608331973083319761
:1014300032E13083319733E13083319734E13083C7
:10144000319735E13083319736E13083319737E199
:101450003083319738E13083319739E130833197E8
:1014600030E23083319731E23083319720833197F6
:1014700023E220833197408331975083319726E2CE
:101480002083319727E22083319728E22083319708
:1014900029E22083319720E32083319721E32083C1
:1014A000869708951BBC8CE78ABD8BE08EBD87B7FD
:1014B000806187BFA0914C07B0914D07CD91CDBF02
:1014C000DD91DEBFFF91EF91DF91CF91BF91AF91A1
:1014D0009F918F917F916F915F914F913F912F914C
:1014E0001F910F91FF90EF90DF90CF90BF90AF9042
:1014F0009F908F907F906F905F904F903F902F9034
:101500001F900F900FBE0F90089581E008950F92E5
:101510000FB6F8940F921F9211242F923F924F9280
:101520005F926F927F928F929F92AF92BF92CF9273
:10153000DF92EF92FF920F931F932F933F934F935E
:101540005F936F937F938F939F93AF93BF93CF934B
:10155000DF93EF93FF93A0914C07B0914D070DB629
:101560000D920EB60D928ED3A0914C07B0914D07FF
:10157000CD91CDBFDD91DEBFFF91EF91DF91CF9196
:10158000BF91AF919F918F917F916F915F914F919B
:101590003F912F911F910F91FF90EF90DF90CF908F
:1015A000BF90AF909F908F907F906F905F904F9083
:1015B0003F902F901F900F900FBE0F9008950F92A5
:1015C0000FB6F8940F921F9211242F923F924F92D0
:1015D0005F926F927F928F929F92AF92BF92CF92C3
:1015E000DF92EF92FF920F931F932F933F934F93AE
:1015F0005F936F937F938F939F93AF93BF93CF939B
:10160000DF93EF93FF93A0914C07B0914D070DB678
:101610000D920EB60D92AED1811134D3A0914C072C
:10162000B0914D07CD91CDBFDD91DEBFFF91EF9120
:10163000DF91CF91BF91AF919F918F917F916F91EA
:101640005F914F913F912F911F910F91FF90EF90DC
:10165000DF90CF90BF90AF909F908F907F906F90D2
:101660005F904F903F902F901F900F900FBE0F9064
:101670000895A5DF1895E0911407F0911507808172
:10168000811107C08FEF9FEF9093020180930101BA
:101690000895E0911407F09115070580F681E02D7B
:1016A0000680F781E02D82819381909302018093DF
:1016B00001010895CF93DF93EC01E0914C07F09185
:1016C0004D07938382838091FC069091FD06C81795
:1016D000D90760F460914C0770914D078091120713
:1016E000909113076E5F7F4F1ADE16C060914C0712
:1016F00070914D0780911407909115076E5F7F4F91
:101700000EDE8091010190910201C817D90720F4E3
:10171000D0930201C0930101DF91CF9108954F92C0
:101720005F926F927F928F929F92AF92BF92CF9271
:10173000DF92EF92FF920F931F93CF93DF934C01B1
:10174000EB015A0129018DE290E082DD3C01009716
:1017500009F4CFC0C114D10409F0C7C0C50178DDB8
:10176000F301908F878B892B19F4C301A4DDC1C0CD
:10177000F1E0AF1AB108F3018789908DA80EB91E68
:101780008881818F8881882381F0D3015A96FE0158
:1017900031969E012C5E3F4FEF0181918D938881A0
:1017A000882319F0E217F307B9F7F30114A6102FF5
:1017B000043008F013E0F301168BE3012296CE010A
:1017C00089DDC3010C9686DDF3017186608684E0B5
:1017D00090E0811B910995878487738A628AA201B0
:1017E000B401C501F3DDF30191838083E114F104B9
:1017F00019F0F701718260820FB6F8940F92809110
:10180000FE068F5F8093FE0680914C0790914D07F6
:10181000892B69F570924D0760924C078091FE0606
:101820008130A1F588E297E047DD81E397E044DD70
:101830008AE397E041DD83E497E03EDD8FE197E0C6
:101840003BDD86E197E038DD89E097E035DD80E03B
:1018500097E032DD8FE197E09093150780931407AE
:1018600086E197E090931307809312070FC0809151
:10187000FA0681110BC0E0914C07F0914D07868963
:10188000081720F070924D0760924C078091F60681
:101890008F5F8093F606F30186899091FB06981777
:1018A00010F48093FB0690E09C01220F331F220F5F
:1018B000331F220F331F820F931FBE01885D984F85
:1018C0000DDD0F900FBE8091FA06882351F0E09154
:1018D0004C07F0914D078689801728F418DE81E0C7
:1018E00009C081E007C081E005C0FC01D08EC78A35
:1018F0003FCF8FEFDF91CF911F910F91FF90EF902E
:10190000DF90CF90BF90AF909F908F907F906F901F
:101910005F904F900895AF92BF92CF92DF92EF9277
:10192000FF920F93A12CB12CC12CD12CE12CF12CC6
:1019300000E020E030E045E550E063E071E08BE05E
:101940009EE0EDDE813041F4F8948093FA06109227
:10195000FD061092FC06A6DD0F91FF90EF90DF9040
:10196000CF90BF90AF9008958091F5068F5F8093E0
:10197000F5060895CF92DF92EF92FF920F931F9397
:10198000CF93DF938091F506811197C08091FC067B
:101990009091FD0601969093FD068093FC06E090E1
:1019A000FC06F090FD06E114F104B1F480911407F7
:1019B0009091150720911207309113073093150766
:1019C0002093140790931307809312078091F706D2
:1019D0008F5F8093F7064FDE8091010190910201A5
:1019E000E816F90610F4D12C50C0D12CCC24C394A5
:1019F000E0911407F09115078081811107C08FEFE6
:101A00009FEF90930201809301013FC0E091140782
:101A1000F09115070580F681E02DC681D7818A8176
:101A20009B81E816F90628F4909302018093010146
:101A30002CC08E010E5F1F4FC801A2DC8C899D89CE
:101A4000892B19F0CE010C969BDC8E899091FB06B8
:101A5000981710F48093FB0690E09C01220F331F2F
:101A6000220F331F220F331F820F931FB801885D8F
:101A7000984F34DCE0914C07F0914D079E898689A0
:101A8000981708F4B5CFDC2CB3CFE0914C07F09158
:101A90004D07868990E0FC01EE0FFF1FEE0FFF1F40
:101AA000EE0FFF1F8E0F9F1FFC01E85DF84F808136
:101AB000823048F0DD24D39406C08091F9068F5F10
:101AC0008093F906D12C8091F806882311F0DD244B
:101AD000D3948D2DDF91CF911F910F91FF90EF90B7
:101AE000DF90CF900895DF92EF92FF920F931F93B4
:101AF000CF93DF930FB6F8940F928091F506815043
:101B00008093F5068091F50681115DC08091FE06F7
:101B1000811130C05BC0D7011596ED91FC911697ED
:101B2000C681D781CE010C962BDC8E010E5F1F4F34
:101B3000C80126DC8E899091FB06981710F48093DB
:101B4000FB0690E09C01220F331F220F331F220F50
:101B5000331F820F931FB801885D984FBFDBE09160
:101B60004C07F0914D079E898689981758F0D092BE
:101B7000F80608C00F2EF9E0EF2EF7E0FF2EF02D4B
:101B8000DD24D394F70180818111C5CF8091F906BE
:101B9000882391F08091F906882371F0C1E0EADE94
:101BA0008111C093F8068091F90681508093F9065F
:101BB0008091F9068111F3CF8091F806813029F4E4
:101BC000A6DC81E003C080E001C080E00F900FBE82
:101BD000DF91CF911F910F91FF90EF90DF900895CB
:101BE000CF93DF93EC01892B91F0BEDE8091FC0650
:101BF0009091FD06C80FD91F80914C0790914D0719
:101C00000296BEDBCE0156DD6EDF811101C07FDCA6
:101C1000DF91CF91089500E017E00F2EF8E2EF2E4C
:101C2000F7E0FF2EF02D24C09FDED801CC915BDFC2
:101C3000CC23F1F00FB6F8940F92D8011596ED91E0
:101C4000FC911697C681D781CE01029699DB8091CF
:101C5000FE0681508093FE068091FF06815080939E
:101C6000FF060F900FBE8F89988D25DBCE0123DBF9
:101C70008091FF068111D8CFF70180818230C0F3B7
:101C800046DCF6CF8091F506882321F081E0809331
:101C9000F80608951092F8068091FB0690E0FC018A
:101CA000EE0FFF1FEE0FFF1FEE0FFF1F8E0F9F1F88
:101CB000FC01E85DF84F8081811117C08091FB061F
:101CC00081508093FB068091FB0690E0FC01EE0FB3
:101CD000FF1FEE0FFF1FEE0FFF1F8E0F9F1FFC0158
:101CE000E85DF84F8081882349F38091FB0690E0FE
:101CF0009C01220F331F220F331F220F331F280F87
:101D0000391FD901A85DB84F1196ED91FC9112973A
:101D10000280F381E02D1296FC93EE931197255DDE
:101D2000384FE217F30729F422813381FD01328312
:101D30002183FC01EE0FFF1FEE0FFF1FEE0FFF1FB1
:101D40008E0F9F1FFC01E85DF84F0180F281E02DAE
:101D50008681978190934D0780934C070895505842
:101D6000BB27AA270ED0E0C0D1D030F0D6D020F0CB
:101D700031F49F3F11F41EF4C6C00EF4E095E7FB6A
:101D8000BCC0E92FE2D080F3BA176207730784075B
:101D9000950718F071F49EF5FAC00EF4E0950B2E3D
:101DA000BA2FA02D0B01B90190010C01CA01A001AD
:101DB0001124FF27591B99F0593F50F4503E68F108
:101DC0001A16F040A22F232F342F4427585FF3CF49
:101DD000469537952795A795F0405395C9F77EF41A
:101DE0001F16BA0B620B730B840BBAF09150A1F063
:101DF000FF0FBB1F661F771F881FC2F70EC0BA0FE9
:101E0000621F731F841F48F4879577956795B79570
:101E1000F7959E3F08F0B3CF9395880F08F0992768
:101E2000EE0F97958795089598D088F09F5790F07A
:101E3000B92F9927B751A0F0D1F0660F771F881FEF
:101E4000991F1AF0BA95C9F712C0B13081F09FD02E
:101E5000B1E008959CC0672F782F8827B85F39F0CC
:101E6000B93FCCF3869577956795B395D9F73EF44E
:101E700090958095709561957F4F8F4F9F4F0895F6
:101E8000E89409C097FB3EF4909580957095619514
:101E90007F4F8F4F9F4F9923A9F0F92F96E9BB27CA
:101EA0009395F695879577956795B795F111F8CF46
:101EB000FAF4BB0F11F460FF1BC06F5F7F4F8F4FB1
:101EC0009F4F16C0882311F096E911C0772321F0A7
:101ED0009EE8872F762F05C0662371F096E8862F3F
:101EE00070E060E02AF09A95660F771F881FDAF796
:101EF000880F9695879597F9089597F99F6780E8D9
:101F000070E060E008959FEF80EC089500240A944B
:101F10001616170618060906089500240A941216C4
:101F20001306140605060895092E0394000C11F4F7
:101F3000882352F0BB0F40F4BF2B11F460FF04C0A4
:101F40006F5F7F4F8F4F9F4F089557FD9058440FFD
:101F5000551F59F05F3F71F04795880F97FB991F08
:101F600061F09F3F79F087950895121613061406C5
:101F7000551FF2CF4695F1DF08C016161706180652
:101F8000991FF1CF86957105610508940895E8942D
:101F9000BB2766277727CB0197F908950BD0C4CFCD
:101FA000B5DF28F0BADF18F0952309F0A6CFABCF44
:101FB0001124EECFCADFA0F3959FD1F3950F50E027
:101FC000551F629FF001729FBB27F00DB11D639FEB
:101FD000AA27F00DB11DAA1F649F6627B00DA11D91
:101FE000661F829F2227B00DA11D621F739FB00D37
:101FF000A11D621F839FA00D611D221F749F3327A7
:10200000A00D611D231F849F600D211D822F762F3F
:102010006A2F11249F5750408AF0E1F088234AF03C
:10202000EE0FFF1FBB1F661F771F881F9150504088
:10203000A9F79E3F510570F060CFAACF5F3FECF348
:10204000983EDCF3869577956795B795F795E79574
:102050009F5FC1F7FE2B880F911D9695879597F985
:102060000895A29FB001B39FC001A39F700D811D71
:102070001124911DB29F700D811D1124911D089591
:04208000F894FFCF02
:0820840001FFFF49444C450037
:00000001FF
